{
  "_format": "hh-sol-artifact-1",
  "contractName": "Library",
  "sourceName": "contracts/Library.sol",
  "abi": [
    {
      "inputs": [
        {
          "internalType": "address",
          "name": "_owner",
          "type": "address"
        }
      ],
      "stateMutability": "nonpayable",
      "type": "constructor"
    },
    {
      "inputs": [],
      "name": "incorrectId",
      "type": "error"
    },
    {
      "inputs": [
        {
          "internalType": "uint256",
          "name": "price",
          "type": "uint256"
        },
        {
          "internalType": "uint256",
          "name": "paid",
          "type": "uint256"
        }
      ],
      "name": "incorrectPrice",
      "type": "error"
    },
    {
      "inputs": [],
      "name": "not_owner",
      "type": "error"
    },
    {
      "anonymous": false,
      "inputs": [
        {
          "indexed": false,
          "internalType": "string",
          "name": "_name",
          "type": "string"
        },
        {
          "indexed": false,
          "internalType": "string",
          "name": "_Link",
          "type": "string"
        },
        {
          "indexed": false,
          "internalType": "string",
          "name": "_description",
          "type": "string"
        },
        {
          "indexed": false,
          "internalType": "string",
          "name": "_category",
          "type": "string"
        },
        {
          "indexed": false,
          "internalType": "uint256",
          "name": "price",
          "type": "uint256"
        }
      ],
      "name": "PublicUpload",
      "type": "event"
    },
    {
      "anonymous": false,
      "inputs": [
        {
          "indexed": false,
          "internalType": "address",
          "name": "_sharer",
          "type": "address"
        },
        {
          "indexed": false,
          "internalType": "string",
          "name": "_filename",
          "type": "string"
        },
        {
          "indexed": false,
          "internalType": "address",
          "name": "_to",
          "type": "address"
        }
      ],
      "name": "Share",
      "type": "event"
    },
    {
      "anonymous": false,
      "inputs": [
        {
          "indexed": false,
          "internalType": "address",
          "name": "_seller",
          "type": "address"
        },
        {
          "indexed": false,
          "internalType": "address",
          "name": "_buyer",
          "type": "address"
        },
        {
          "indexed": false,
          "internalType": "string",
          "name": "_name",
          "type": "string"
        },
        {
          "indexed": false,
          "internalType": "uint256",
          "name": "_price",
          "type": "uint256"
        }
      ],
      "name": "bought",
      "type": "event"
    },
    {
      "inputs": [
        {
          "internalType": "string",
          "name": "_name",
          "type": "string"
        },
        {
          "internalType": "string",
          "name": "_link",
          "type": "string"
        },
        {
          "internalType": "string",
          "name": "_description",
          "type": "string"
        },
        {
          "internalType": "string",
          "name": "_category",
          "type": "string"
        }
      ],
      "name": "PrivateUpload",
      "outputs": [],
      "stateMutability": "nonpayable",
      "type": "function"
    },
    {
      "inputs": [
        {
          "internalType": "uint256",
          "name": "_arrayID",
          "type": "uint256"
        }
      ],
      "name": "assetPrice",
      "outputs": [
        {
          "internalType": "uint256",
          "name": "",
          "type": "uint256"
        }
      ],
      "stateMutability": "view",
      "type": "function"
    },
    {
      "inputs": [
        {
          "internalType": "uint256",
          "name": "_arrayID",
          "type": "uint256"
        }
      ],
      "name": "buyItem",
      "outputs": [],
      "stateMutability": "payable",
      "type": "function"
    },
    {
      "inputs": [
        {
          "internalType": "address",
          "name": "_addr",
          "type": "address"
        }
      ],
      "name": "changeOwner",
      "outputs": [],
      "stateMutability": "nonpayable",
      "type": "function"
    },
    {
      "inputs": [
        {
          "internalType": "uint256",
          "name": "",
          "type": "uint256"
        }
      ],
      "name": "getContentById",
      "outputs": [
        {
          "internalType": "uint256",
          "name": "ID",
          "type": "uint256"
        },
        {
          "internalType": "string",
          "name": "name",
          "type": "string"
        },
        {
          "internalType": "string",
          "name": "Link",
          "type": "string"
        },
        {
          "internalType": "string",
          "name": "description",
          "type": "string"
        },
        {
          "internalType": "string",
          "name": "category",
          "type": "string"
        },
        {
          "internalType": "address",
          "name": "seller",
          "type": "address"
        },
        {
          "internalType": "uint256",
          "name": "price",
          "type": "uint256"
        }
      ],
      "stateMutability": "view",
      "type": "function"
    },
    {
      "inputs": [],
      "name": "getLatestPrice",
      "outputs": [
        {
          "internalType": "uint256",
          "name": "",
          "type": "uint256"
        }
      ],
      "stateMutability": "view",
      "type": "function"
    },
    {
      "inputs": [],
      "name": "privateCount",
      "outputs": [
        {
          "internalType": "uint256",
          "name": "",
          "type": "uint256"
        }
      ],
      "stateMutability": "view",
      "type": "function"
    },
    {
      "inputs": [],
      "name": "publicCount",
      "outputs": [
        {
          "internalType": "uint256",
          "name": "",
          "type": "uint256"
        }
      ],
      "stateMutability": "view",
      "type": "function"
    },
    {
      "inputs": [
        {
          "internalType": "uint256",
          "name": "",
          "type": "uint256"
        }
      ],
      "name": "publicLib",
      "outputs": [
        {
          "internalType": "uint256",
          "name": "ID",
          "type": "uint256"
        },
        {
          "internalType": "string",
          "name": "name",
          "type": "string"
        },
        {
          "internalType": "string",
          "name": "Link",
          "type": "string"
        },
        {
          "internalType": "string",
          "name": "description",
          "type": "string"
        },
        {
          "internalType": "string",
          "name": "category",
          "type": "string"
        },
        {
          "internalType": "address",
          "name": "seller",
          "type": "address"
        },
        {
          "internalType": "uint256",
          "name": "price",
          "type": "uint256"
        }
      ],
      "stateMutability": "view",
      "type": "function"
    },
    {
      "inputs": [
        {
          "internalType": "uint256",
          "name": "_ID",
          "type": "uint256"
        },
        {
          "internalType": "uint256",
          "name": "_price",
          "type": "uint256"
        }
      ],
      "name": "publicSale",
      "outputs": [],
      "stateMutability": "nonpayable",
      "type": "function"
    },
    {
      "inputs": [
        {
          "internalType": "string",
          "name": "_name",
          "type": "string"
        },
        {
          "internalType": "string",
          "name": "_Link",
          "type": "string"
        },
        {
          "internalType": "string",
          "name": "_description",
          "type": "string"
        },
        {
          "internalType": "string",
          "name": "_category",
          "type": "string"
        }
      ],
      "name": "publicUpload",
      "outputs": [
        {
          "internalType": "string",
          "name": "",
          "type": "string"
        }
      ],
      "stateMutability": "nonpayable",
      "type": "function"
    },
    {
      "inputs": [
        {
          "internalType": "address[]",
          "name": "_to",
          "type": "address[]"
        },
        {
          "internalType": "uint256",
          "name": "_ID",
          "type": "uint256"
        }
      ],
      "name": "share",
      "outputs": [
        {
          "internalType": "string",
          "name": "",
          "type": "string"
        }
      ],
      "stateMutability": "nonpayable",
      "type": "function"
    },
    {
      "inputs": [],
      "name": "viewPrivateLib",
      "outputs": [
        {
          "components": [
            {
              "internalType": "uint256",
              "name": "ID",
              "type": "uint256"
            },
            {
              "internalType": "string",
              "name": "name",
              "type": "string"
            },
            {
              "internalType": "string",
              "name": "Link",
              "type": "string"
            },
            {
              "internalType": "string",
              "name": "description",
              "type": "string"
            },
            {
              "internalType": "string",
              "name": "category",
              "type": "string"
            },
            {
              "internalType": "address",
              "name": "seller",
              "type": "address"
            },
            {
              "internalType": "uint256",
              "name": "price",
              "type": "uint256"
            }
          ],
          "internalType": "struct Library.content[]",
          "name": "",
          "type": "tuple[]"
        }
      ],
      "stateMutability": "view",
      "type": "function"
    },
    {
      "inputs": [],
      "name": "viewPublicLib",
      "outputs": [
        {
          "components": [
            {
              "internalType": "uint256",
              "name": "ID",
              "type": "uint256"
            },
            {
              "internalType": "string",
              "name": "name",
              "type": "string"
            },
            {
              "internalType": "string",
              "name": "Link",
              "type": "string"
            },
            {
              "internalType": "string",
              "name": "description",
              "type": "string"
            },
            {
              "internalType": "string",
              "name": "category",
              "type": "string"
            },
            {
              "internalType": "address",
              "name": "seller",
              "type": "address"
            },
            {
              "internalType": "uint256",
              "name": "price",
              "type": "uint256"
            }
          ],
          "internalType": "struct Library.content[]",
          "name": "",
          "type": "tuple[]"
        }
      ],
      "stateMutability": "view",
      "type": "function"
    },
    {
      "inputs": [],
      "name": "withdraw",
      "outputs": [],
      "stateMutability": "nonpayable",
      "type": "function"
    }
  ],
  "bytecode": "0x60806040526000805534801561001457600080fd5b50611619806100246000396000f3fe608060405234801561001057600080fd5b50600436106100625760003560e01c806306661abd146100675780630750b249146100855780635796a159146100a3578063d8382357146100d5578063e785a8c514610105578063ecee406614610135575b600080fd5b61006f610165565b60405161007c919061126e565b60405180910390f35b61008d61016b565b60405161009a9190611187565b60405180910390f35b6100bd60048036038101906100b89190610f87565b6103bd565b6040516100cc93929190611202565b60405180910390f35b6100ef60048036038101906100ea9190610ee0565b61058f565b6040516100fc91906111a9565b60405180910390f35b61011f600480360381019061011a9190610e84565b610789565b60405161012c91906111a9565b60405180910390f35b61014f600480360381019061014a9190610ee0565b610b74565b60405161015c91906111a9565b60405180910390f35b60005481565b6060600260003373ffffffffffffffffffffffffffffffffffffffff1673ffffffffffffffffffffffffffffffffffffffff168152602001908152602001600020805480602002602001604051908101604052809291908181526020016000905b828210156103b457838290600052602060002090600302016040518060600160405290816000820180546101ff906113fa565b80601f016020809104026020016040519081016040528092919081815260200182805461022b906113fa565b80156102785780601f1061024d57610100808354040283529160200191610278565b820191906000526020600020905b81548152906001019060200180831161025b57829003601f168201915b50505050508152602001600182018054610291906113fa565b80601f01602080910402602001604051908101604052809291908181526020018280546102bd906113fa565b801561030a5780601f106102df5761010080835404028352916020019161030a565b820191906000526020600020905b8154815290600101906020018083116102ed57829003601f168201915b50505050508152602001600282018054610323906113fa565b80601f016020809104026020016040519081016040528092919081815260200182805461034f906113fa565b801561039c5780601f106103715761010080835404028352916020019161039c565b820191906000526020600020905b81548152906001019060200180831161037f57829003601f168201915b505050505081525050815260200190600101906101cc565b50505050905090565b600381815481106103cd57600080fd5b90600052602060002090600302016000915090508060000180546103f0906113fa565b80601f016020809104026020016040519081016040528092919081815260200182805461041c906113fa565b80156104695780601f1061043e57610100808354040283529160200191610469565b820191906000526020600020905b81548152906001019060200180831161044c57829003601f168201915b50505050509080600101805461047e906113fa565b80601f01602080910402602001604051908101604052809291908181526020018280546104aa906113fa565b80156104f75780601f106104cc576101008083540402835291602001916104f7565b820191906000526020600020905b8154815290600101906020018083116104da57829003601f168201915b50505050509080600201805461050c906113fa565b80601f0160208091040260200160405190810160405280929190818152602001828054610538906113fa565b80156105855780601f1061055a57610100808354040283529160200191610585565b820191906000526020600020905b81548152906001019060200180831161056857829003601f168201915b5050505050905083565b60606000808154809291906105a39061145d565b9190505550604051806060016040528085815260200184815260200183815250600160003373ffffffffffffffffffffffffffffffffffffffff1673ffffffffffffffffffffffffffffffffffffffff1681526020019081526020016000206000805481526020019081526020016000206000820151816000019080519060200190610630929190610ca9565b50602082015181600101908051906020019061064d929190610ca9565b50604082015181600201908051906020019061066a929190610ca9565b50905050600260003373ffffffffffffffffffffffffffffffffffffffff1673ffffffffffffffffffffffffffffffffffffffff1681526020019081526020016000206040518060600160405280868152602001858152602001848152509080600181540180825580915050600190039060005260206000209060030201600090919091909150600082015181600001908051906020019061070d929190610ca9565b50602082015181600101908051906020019061072a929190610ca9565b506040820151816002019080519060200190610747929190610ca9565b5050506040518060400160405280601881526020017f416464656420746f2050726976617465204c696272617279000000000000000081525090509392505050565b60606000600160003373ffffffffffffffffffffffffffffffffffffffff1673ffffffffffffffffffffffffffffffffffffffff16815260200190815260200160002060008481526020019081526020016000206040518060600160405290816000820180546107f8906113fa565b80601f0160208091040260200160405190810160405280929190818152602001828054610824906113fa565b80156108715780601f1061084657610100808354040283529160200191610871565b820191906000526020600020905b81548152906001019060200180831161085457829003601f168201915b5050505050815260200160018201805461088a906113fa565b80601f01602080910402602001604051908101604052809291908181526020018280546108b6906113fa565b80156109035780601f106108d857610100808354040283529160200191610903565b820191906000526020600020905b8154815290600101906020018083116108e657829003601f168201915b5050505050815260200160028201805461091c906113fa565b80601f0160208091040260200160405190810160405280929190818152602001828054610948906113fa565b80156109955780601f1061096a57610100808354040283529160200191610995565b820191906000526020600020905b81548152906001019060200180831161097857829003601f168201915b505050505081525050905060005b8451811015610b3457600073ffffffffffffffffffffffffffffffffffffffff168582815181106109d7576109d6611504565b5b602002602001015173ffffffffffffffffffffffffffffffffffffffff161415610a36576040517f08c379a0000000000000000000000000000000000000000000000000000000008152600401610a2d9061124e565b60405180910390fd5b60405180606001604052808360000151815260200183602001518152602001836040015181525060016000878481518110610a7457610a73611504565b5b602002602001015173ffffffffffffffffffffffffffffffffffffffff1673ffffffffffffffffffffffffffffffffffffffff16815260200190815260200160002060008681526020019081526020016000206000820151816000019080519060200190610ae3929190610ca9565b506020820151816001019080519060200190610b00929190610ca9565b506040820151816002019080519060200190610b1d929190610ca9565b509050508080610b2c9061145d565b9150506109a3565b506040518060400160405280600681526020017f736861726564000000000000000000000000000000000000000000000000000081525091505092915050565b60606000604051806060016040528086815260200185815260200184815250905060038190806001815401808255809150506001900390600052602060002090600302016000909190919091506000820151816000019080519060200190610bdd929190610ca9565b506020820151816001019080519060200190610bfa929190610ca9565b506040820151816002019080519060200190610c17929190610ca9565b50505084604051610c289190611170565b60405180910390207fc4885398af39d9aa9946ae8b20dc0591887c0d204681019c66009bbcd116ed198585604051610c619291906111cb565b60405180910390a26040518060400160405280601781526020017f416464656420746f205075626c6963204c6962726172790000000000000000008152509150509392505050565b828054610cb5906113fa565b90600052602060002090601f016020900481019282610cd75760008555610d1e565b82601f10610cf057805160ff1916838001178555610d1e565b82800160010185558215610d1e579182015b82811115610d1d578251825591602001919060010190610d02565b5b509050610d2b9190610d2f565b5090565b5b80821115610d48576000816000905550600101610d30565b5090565b6000610d5f610d5a846112ae565b611289565b90508083825260208201905082856020860282011115610d8257610d81611567565b5b60005b85811015610db25781610d988882610dfe565b845260208401935060208301925050600181019050610d85565b5050509392505050565b6000610dcf610dca846112da565b611289565b905082815260208101848484011115610deb57610dea61156c565b5b610df68482856113b8565b509392505050565b600081359050610e0d816115b5565b92915050565b600082601f830112610e2857610e27611562565b5b8135610e38848260208601610d4c565b91505092915050565b600082601f830112610e5657610e55611562565b5b8135610e66848260208601610dbc565b91505092915050565b600081359050610e7e816115cc565b92915050565b60008060408385031215610e9b57610e9a611576565b5b600083013567ffffffffffffffff811115610eb957610eb8611571565b5b610ec585828601610e13565b9250506020610ed685828601610e6f565b9150509250929050565b600080600060608486031215610ef957610ef8611576565b5b600084013567ffffffffffffffff811115610f1757610f16611571565b5b610f2386828701610e41565b935050602084013567ffffffffffffffff811115610f4457610f43611571565b5b610f5086828701610e41565b925050604084013567ffffffffffffffff811115610f7157610f70611571565b5b610f7d86828701610e41565b9150509250925092565b600060208284031215610f9d57610f9c611576565b5b6000610fab84828501610e6f565b91505092915050565b6000610fc08383611103565b905092915050565b6000610fd38261131b565b610fdd818561133e565b935083602082028501610fef8561130b565b8060005b8581101561102b578484038952815161100c8582610fb4565b945061101783611331565b925060208a01995050600181019050610ff3565b50829750879550505050505092915050565b600061104882611326565b611052818561134f565b93506110628185602086016113c7565b61106b8161157b565b840191505092915050565b600061108182611326565b61108b8185611360565b935061109b8185602086016113c7565b6110a48161157b565b840191505092915050565b60006110ba82611326565b6110c48185611371565b93506110d48185602086016113c7565b80840191505092915050565b60006110ed601e83611360565b91506110f88261158c565b602082019050919050565b60006060830160008301518482036000860152611120828261103d565b9150506020830151848203602086015261113a828261103d565b91505060408301518482036040860152611154828261103d565b9150508091505092915050565b61116a816113ae565b82525050565b600061117c82846110af565b915081905092915050565b600060208201905081810360008301526111a18184610fc8565b905092915050565b600060208201905081810360008301526111c38184611076565b905092915050565b600060408201905081810360008301526111e58185611076565b905081810360208301526111f98184611076565b90509392505050565b6000606082019050818103600083015261121c8186611076565b905081810360208301526112308185611076565b905081810360408301526112448184611076565b9050949350505050565b60006020820190508181036000830152611267816110e0565b9050919050565b60006020820190506112836000830184611161565b92915050565b60006112936112a4565b905061129f828261142c565b919050565b6000604051905090565b600067ffffffffffffffff8211156112c9576112c8611533565b5b602082029050602081019050919050565b600067ffffffffffffffff8211156112f5576112f4611533565b5b6112fe8261157b565b9050602081019050919050565b6000819050602082019050919050565b600081519050919050565b600081519050919050565b6000602082019050919050565b600082825260208201905092915050565b600082825260208201905092915050565b600082825260208201905092915050565b600081905092915050565b60006113878261138e565b9050919050565b600073ffffffffffffffffffffffffffffffffffffffff82169050919050565b6000819050919050565b82818337600083830152505050565b60005b838110156113e55780820151818401526020810190506113ca565b838111156113f4576000848401525b50505050565b6000600282049050600182168061141257607f821691505b60208210811415611426576114256114d5565b5b50919050565b6114358261157b565b810181811067ffffffffffffffff8211171561145457611453611533565b5b80604052505050565b6000611468826113ae565b91507fffffffffffffffffffffffffffffffffffffffffffffffffffffffffffffffff82141561149b5761149a6114a6565b5b600182019050919050565b7f4e487b7100000000000000000000000000000000000000000000000000000000600052601160045260246000fd5b7f4e487b7100000000000000000000000000000000000000000000000000000000600052602260045260246000fd5b7f4e487b7100000000000000000000000000000000000000000000000000000000600052603260045260246000fd5b7f4e487b7100000000000000000000000000000000000000000000000000000000600052604160045260246000fd5b600080fd5b600080fd5b600080fd5b600080fd5b600080fd5b6000601f19601f8301169050919050565b7f796f752063616e7420736861726520746f207a65726f20616464726573730000600082015250565b6115be8161137c565b81146115c957600080fd5b50565b6115d5816113ae565b81146115e057600080fd5b5056fea26469706673582212203343d14392ff475644f1d2e39ff5099efc40b98022c99a8768550b7b87928baa64736f6c63430008070033",
  "linkReferences": {},
  "deployedLinkReferences": {}
}